{
  "transactions": [
    {
      "hash": "0xa5d519e3ec578bfee128991b00318c2c76c5ef3604022bb72922220a71e0447d",
      "transactionType": "CALL",
      "contractName": null,
      "contractAddress": "0x748b4de7571811725fd7aadae7a7455032f82cff",
      "function": "mintNft(string)",
      "arguments": [
        "ipfs://bafybeig37ioir76s7mg5oobetncojcm3c3hxasyd4rvid4jqhy4gkaheg4/?filename=0-PUG.json"
      ],
      "transaction": {
        "from": "0x2780e5a97166baee7122d15ad5c779612613a34f",
        "to": "0x748b4de7571811725fd7aadae7a7455032f82cff",
        "gas": "0x414c8",
        "value": "0x0",
        "input": "0xda86f4a900000000000000000000000000000000000000000000000000000000000000200000000000000000000000000000000000000000000000000000000000000057697066733a2f2f62616679626569673337696f6972373673376d67356f6f6265746e636f6a636d3363336878617379643472766964346a71687934676b61686567342f3f66696c656e616d653d302d5055472e6a736f6e000000000000000000",
        "nonce": "0x14",
        "chainId": "0xaa36a7"
      },
      "additionalContracts": [],
      "isFixedGasLimit": false
    }
  ],
  "receipts": [
    {
      "status": "0x1",
      "cumulativeGasUsed": "0x1403474",
      "logs": [
        {
          "address": "0x748b4de7571811725fd7aadae7a7455032f82cff",
          "topics": [
            "0xddf252ad1be2c89b69c2b068fc378daa952ba7f163c4a11628f55a4df523b3ef",
            "0x0000000000000000000000000000000000000000000000000000000000000000",
            "0x0000000000000000000000002780e5a97166baee7122d15ad5c779612613a34f",
            "0x0000000000000000000000000000000000000000000000000000000000000000"
          ],
          "data": "0x",
          "blockHash": "0xa05cd678c11ad174d988b809306b574d31bbe229be22166d7444474941dd7ea2",
          "blockNumber": "0x84a201",
          "blockTimestamp": "0x68681cac",
          "transactionHash": "0xa5d519e3ec578bfee128991b00318c2c76c5ef3604022bb72922220a71e0447d",
          "transactionIndex": "0x163",
          "logIndex": "0x227",
          "removed": false
        }
      ],
      "logsBloom": "0x00000000000000000000000000000000000000000000200000000000000000000000000000000000000000000000000002000000000000000000000000000000000000000000000000000008000000000000000000000000000000000000000000000000020000000000000000000800000000000000000000000010000000000000000000000000000010000000000000000000000000000000000000800000000002000000000000200000000000000000000000000000000000000000000000000002000000000000000000000000000000000000000000000000000020000000000000000000000000000000000000000000000000000000000000000000",
      "type": "0x2",
      "transactionHash": "0xa5d519e3ec578bfee128991b00318c2c76c5ef3604022bb72922220a71e0447d",
      "transactionIndex": "0x163",
      "blockHash": "0xa05cd678c11ad174d988b809306b574d31bbe229be22166d7444474941dd7ea2",
      "blockNumber": "0x84a201",
      "gasUsed": "0x2ca62",
      "effectiveGasPrice": "0xa9c3047a",
      "from": "0x2780e5a97166baee7122d15ad5c779612613a34f",
      "to": "0x748b4de7571811725fd7aadae7a7455032f82cff",
      "contractAddress": null
    }
  ],
  "libraries": [],
  "pending": [],
  "returns": {},
  "timestamp": 1751653549,
  "chain": 11155111,
  "commit": "eeee82e"
}